:03000000020CFAF5
:0C0CFA00787FE4F6D8FD758121020757D1
:0D000E00E4F5C7F5C5F5C675C380F5C4223D
:100C660043C78043C70375C5038FC4EEF5C375C676
:0E0C76005A75C6A57F0A7E00120C4602000EBB
:100BE20043C78043C70375C5028FC4EEF5C3AF0583
:100BF2008FC275C65A75C6A57F0A7E00120C4602C0
:020C0200000EE2
:100C260043C78043C70375C5018FC4EEF5C375C6B8
:100C36005A75C6A57F0A7E00120C46AFC202000E88
:100C8400E4F594F593F592F59175961FF59575B283
:0D0C9400BCF5B1F5B4F5B375CA10F5C92271
:1005DD003D3D3D3D3D3D3D3D3D3D20636F646520D1
:1005ED007374617274203D3D3D3D3D3D3D3D3D3D4E
:1005FD00200D0A005468652076616C7565206F6664
:10060D00206C6576656C2E6D6F746F725F73746F91
:10061D00705F74696D65206973202564200D0A0073
:10062D005468652076616C7565206F66206C657603
:10063D00656C2E6D6F746F725F64656C61795F743C
:10064D00696D65206973202564200D0A0054686565
:10065D002076616C7565206F66206D6F746F7231D9
:10066D005F73746F705F636E7420697320256420EF
:10067D000D0A005468652076616C7565206F6620E3
:10068D006D6F746F72315F64656C61795F636E74E9
:0A069D00206973202564200D0A0077
:1007570043BA80120C84120CD4120CE7120CBC1290
:100767000CA1120C041207EF120D06D2AF7BFF7A11
:100777000579DD1200911209C112095C12001E7B76
:10078700FF7A067901900004E0FFA3E0900079CF9B
:10079700F0A3EFF01200917BFF7A06792D90000607
:1007A700E0FFA3E0900079CFF0A3EFF01200917B78
:1007B700FF7A06795A900010E0FFA3E0900079CF06
:1007C700F0A3EFF01200917BFF7A06798090001377
:1007D700E0FFA3E0900079CFF0A3EFF01200917F44
:0807E700327E00120C46808EE8
:100CBC0043A240759850438E01438E0475D7E87556
:080CCC00D6FF438E10D2AC22CA
:100CD400538E7F5389F0E4F58A758CDCC28DD28CF7
:030CE400D2A92270
:100CE700438E4053890F758BCD758DD4C28FD28EAD
:030CF700D2AB225B
:1007EF009000047446F0A37450F0A3740BF0A3743C
:1007FF00B8F090000E7401F0E4A3F0900012F090A6
:10080F000010F0A3F0900013F0A3F0A3F0A304F0F6
:10081F00E4A3F0A3F0A3F0A3F0A3F0A3F0A3F0A33D
:10082F0004F0E4A3F0A3F0A3F0A3F0A3F0A3F0A3CC
:10083F00F0A304F0E4A3F0A3F0A3F0A3F0A3F0A3BC
:10084F00F0A3F0A304F0E4A3F0A3F0A3F0A3F0A3AC
:10085F00F0A3F0A3F0A304F0E4A3F0A3F0A3F0A39C
:08086F00F0A3F0A3F0A3F022B6
:0C0D0600D2CCE4900001F0A3F0A3F02296
:100C0400C2B3C2B4C2B5C2A0C2A1C2A3E4900008D8
:100C1400F090000DF090000AF090000CF0C2A2C217
:020C2400B222FA
:1009C100120A5F120A96120ACB120B00120B351291
:1009D1000B6690001DE0FF900015E04FFF90002591
:1009E100E04FFF90002DE0B401047E0180027E0003
:1009F100EE4F6013D2A2C2CC9000087401F0C2B3D2
:100A0100C2B4C2B5C2A02230940930A50630910308
:0E0A110020800AC2B3C2B4C2B5C2A0C2CC22B9
:100A5F0020941290000A7401F0C2B3C2CCE490004B
:100A6F000EF0A3F02290000EE0B4011A209317D2DB
:100A7F00B3D2CCE4F0900010F0A3F0900013F0A3E9
:070A8F00F090000F04F022BB
:100A960020A51290000A7401F0C2B4C2CCE4900002
:100AA60016F0A3F022900016E0B4011820A615D285
:100AB600CCD2B4E4F0900019F0A3F0A3F0A3F09028
:050AC600001704F022FE
:100ACB0020911290000A7401F0C2B5C2CCE49000E0
:100ADB001EF0A3F02290001EE0B40118209215D254
:100AEB00CCD2B5E4F0900021F0A3F0A3F0A3F090EA
:050AFB00001F04F022C1
:100B000020801290000A7401F0C2A0C2CCE49000D0
:100B100026F0A3F022900026E0B4011820A715D2F9
:100B2000CCD2A0E4F0900029F0A3F0A3F0A3F090C1
:050B3000002704F02283
:100B350020831090000A7401F0C2A1E490002EF009
:100B4500A3F02290002EE0B40116209013D2A1E468
:100B5500F0900031F0A3F0A3F0A3F090002F04F083
:010B6500226D
:100B660020821090000A7401F0C2A3E4900036F0CF
:100B7600A3F022900036E0B40116208113D2A3E43C
:100B8600F0900039F0A3F0A3F0A3F090003704F042
:010B9600223C
:10095C0020A4617F647E00120C4620A4F3C2B3C2B3
:10096C00B4C2B5C2A0D2CCC2A2E4900008F09000F0
:10097C000DF0900009F0A3F090000CF090000BF03B
:10098C0090000E04F0E4900015F0A304F0E4900045
:10099C001DF0A304F0E4900025F0A304F0E4900013
:1009AC002DF0A304F0E4900035F0A304F0E49000E3
:0509BC003DF0809C22CB
:03000B0002038B62
:10038B00C0E0C083C082C0D075D000C006C007904B
:10039B00000FE064016003020424900012E070423D
:1003AB00900011E004F07006900010E004F0309320
:1003BB000A900010E4F0A3F0A304F0900004E0FE18
:1003CB00A3E0FFC3900011E09F900010E09E404916
:1003DB00C2B390000FE4F0A3F0A3F090001504F06B
:1003EB008037900014E004F07006900013E004F0E6
:1003FB00900006E0FEA3E0FFC3900014E09F900086
:10040B0013E09E4014C2B390000FE4F0900012F082
:10041B00A3F0A3F090000E04F0900017E0640160CD
:10042B00030204ACA3E0704490001CE004F07006DF
:10043B0090001BE004F030A60C90001BE4F0A3F03E
:10044B0090001804F0900004E0FEA3E0FFC39000BE
:10045B001CE09F90001BE09E4047C2B4900017E445
:10046B00F090001BF0A3F0A304F0803590001AE08D
:10047B0004F07006900019E004F0900006E0FEA373
:10048B00E0FFC390001AE09F900019E09E4012C25B
:10049B00B4900017E4F0A3F0A3F0A3F090001604BF
:1004AB00F090001FE06401600302053EA3E0704979
:1004BB00900024E004F07006900023E004F03092EA
:1004CB0011900023E4F0A3F090002004F0900000C2
:1004DB00E4F0900004E0FEA3E0FFC3900024E09F53
:1004EB00900023E09E404CC2B590001FE4F09000BA
:1004FB0023F0A3F0A304F0803A900022E004F07004
:10050B0006900021E004F0900006E0FEA3E0FFC39C
:10051B00900022E09F900021E09E4017C2B5900012
:10052B001FE4F0A3F0A3F0A3F090001E04F09000E2
:10053B0000E4F0900027E0640160030205D0A3E023
:10054B00704990002CE004F0700690002BE004F052
:10055B0030A71190002BE4F0A3F090002804F0904A
:10056B000000E4F0900004E0FEA3E0FFC390002C39
:10057B00E09F90002BE09E404CC2A0900027E4F03F
:10058B0090002BF0A3F0A304F0803A90002AE00433
:10059B00F07006900029E004F0900006E0FEA3E066
:1005AB00FFC390002AE09F900029E09E4017C2A055
:1005BB00900027E4F0A3F0A3F0A3F090002604F042
:1005CB00900000E4F0D007D006D0D0D082D083D0FA
:0205DB00E0320C
:03001B000208F3E5
:1008F300C0E0C083C082C0D0900072E07002A3E069
:100903006024900073E024FFF0900072E034FFF065
:10091300E07002A3E0700F900074E0D394004006EF
:1009230090003F7401F090000AE0B4012390000CA2
:10093300E0701D90000BE004F0D2B2E0B46411C289
:10094300B290000AE4F090000C04F090000BE4F085
:09095300D0D0D082D083D0E03274
:100BBF007F107E00120C26EFB4FF159000A0E4F01A
:100BCF00A374B4F090009EE4F0A3741EF0120B9780
:030BDF00020A1FE8
:100B9700E4FFFE120C669000A0A3E0FDE4FFFE1246
:100BA7000BE290009EA3E0FD7F017E00120BE27D29
:080BB700587F107E00020BE2E2
:100A1F00E4FFFE120C267E009000A0EEF0A3EFF094
:100A2F007C007D641206A7900004EEF0A3EFF07F28
:100A3F00017E00120C267E0090009EEEF0A3EFF0D8
:100A4F007C007D641206A7900006EEF0A3EFF02263
:100CA100E490003EF0A3F0900058F0900070F0F056
:0B0CB100A3F0A3F0A3F0A3F0A3F02237
:0300230002087759
:10087700C0E0C083C082C0D075D000C00730992CBB
:10088700C29990003EE4F0900070E0601AA3E0FF88
:1008970004F074402FF582E43400F583E0F5999075
:1008A7000070E014F08005900071E4F0309832C2D7
:1008B7009890003FE07021900074E0D394184002B4
:1008C700E4F0900074E02458F582E43400F583E501
:1008D70099F0900074E004F0900072E4F0A3743291
:0C08E700F0D007D0D0D082D083D0E03217
:080003008F993099FDC299228A
:100C4600D3EF9400EE9400401600000075080B7573
:0F0C560009BED509FDD508FAEF1F70E41E80E135
:010C6500226C
:01001E0022BF
:1006A700EF8DF0A4A8F0CF8CF0A428CE8DF0A42E67
:0206B700FE2221
:10002600E5082479F582E43400F583E0050822909A
:100036000076300703900079E475F001120711028B
:1000460006B92000E97F2ED2008018EF540F2490C5
:10005600D43440D4FF30040BEF24BFB41A0050034D
:100066002461FFE50960021509050CE50C7002051F
:100076000B30070E900076E475F001120711EF02BF
:1000860006FF0200037403D2078003E4C207F508E3
:10009600900076120728E4F509F50BF50CE50960E2
:1000A600077F2012006980F5750AFFC201C200C2EF
:1000B60002C203C205C206C208120035FF700D3027
:1000C60007057F0012007AAF0CAE0B22B4255FC283
:1000D600D5C204120035FF24D0B40A00501A75F0B8
:1000E6000A780930D50508B6FF0106C6A426F6200B
:1000F600D5047002D20380D924CFB41A00EF50047D
:10010600C2E5D20402027BD20180C6D20080C0D2F0
:100116000280BCD2D580BAD20580B47F2012006995
:100126002002077401B5090040F1120026FF1200F3
:10013600690200A3D208D2068095120026FB12009F
:1001460026FA120026F94A4B7006794C7A037BFF91
:1001560020022EE509602A7E008E82758300120633
:10016600D260060EEE650A70F0C2D5EBC0E0EAC0BA
:10017600E0E9C0E0EE1202C2D0E0F9D0E0FAD0E049
:10018600FB1206B9FF60AAEBC0E0EAC0E0E9C0E0F6
:10019600120069D0E02401F9D0E03400FAD0E0FB87
:1001A600E50A0460DCD50AD980877BFF7A0279BE2E
:1001B600D202809C791080027908C206C2088008A3
:1001C600D2D5790A8004790AC2D5E50A047002F507
:1001D6000AE4FAFDFEFF120026FC7B08200113123A
:1001E6000026FD7B1030000A120026FE120026FFB4
:1001F6007B20EC3382D592D55013C3E43000069FA2
:10020600FFE49EFEE42001039DFDE49CFCE4CBF8A4
:10021600C201EC700CCFCECDCCE824F8F870F38098
:1002260017C3EF33FFEE33FEED33FDEC33FCEB3358
:10023600FB994002FB0FD8E9EB300105F8D0E0C48A
:1002460048B201C0E00AEC4D4E4F78207B0070C2E8
:10025600EAB50A0040BCC0E01202C4D0F0D0E020EB
:100266000104C4C0E0C4B201C0F0120052D0F0D5FF
:10027600F0EB0200A312073101405301BA580111F5
:100286004C010D4201BE4F01C64401C64901264339
:0802960001CC5501B04601B096
:10029E004501B047036C5001152D01192E013C2B61
:1002AE00011D23013A2003552A00D54800000134D0
:1002BE003F3F3F00790AA2D5200314300509B9103B
:1002CE00020404B9080104A2D5200602500104203C
:1002DE0002689202B509005034C0E07F2030031945
:1002EE007F30A20272067205500F12031BC202C2A9
:1002FE0006C205C2087F30800F300503E9C0E01248
:10030E000069300503D0E0F9D0E0B509CC3005170F
:10031E007F30B9100C1200697F583004077F788047
:10032E0003B908031200693002057F2D0200697FB0
:10033E00202008F87F2B2006F322920280CF286E11
:10034E00756C6C2900D2011200263001F8C20178BA
:10035E000930D50108F60200D52D50434958120038
:10036E00262403B405004001E49003679312005A5B
:0D037E00743A12005AD2037509040201BA44
:1006B900BB010689828A83E0225002E722BBFE023F
:0906C900E32289828A83E4932272
:1006D200BB010CE58229F582E5833AF583E02250DD
:1006E20006E92582F8E622BBFE06E92582F8E22227
:0D06F200E58229F582E5833AF583E4932241
:1006FF00BB010689828A83F0225002F722BBFE01DA
:02070F00F322D3
:10071100F8E0FBA3A3E0F925F0F0E5821582700271
:070721001583E0FA38F02215
:09072800EBF0A3EAF0A3E9F022D2
:10073100D083D082F8E4937012740193700DA3A357
:1007410093F8740193F5828883E47374029368606B
:06075100EFA3A3A380DF6B
:00000001FF
