:03000000020D7C72
:0C0D7C00787FE4F6D8FD758121020BD7CA
:0D000E00E4F5C7F5C5F5C675C380F5C4223D
:100CB70043C78043C70375C5038FC4EEF5C375C625
:0E0CC7005A75C6A57F0A7E00120C9702000E19
:100C550043C78043C70375C5028FC4EEF5C3AF050F
:100C65008FC275C65A75C6A57F0A7E00120C9702FB
:020C7500000E6F
:100C770043C78043C70375C5018FC4EEF5C375C667
:100C87005A75C6A57F0A7E00120C97AFC202000EE6
:100CD500E4F594F593F592F59175961FF59575B232
:0D0CE500BCF5B1F5B4F5B375CA10F5C92220
:100C31003D3D3D3D3D3D3D3D3D3D20636F64652076
:100C41007374617274203D3D3D3D3D3D3D3D3D3DF3
:040C5100200D0A0068
:100BD70043BA80120CD5120D56120D69120D281248
:100BE7000D0D1208E6120D88120D40D2AF120CF24D
:100BF7007BFF7A0C793112041B120A1612095C1258
:040C070009B980F5B2
:100D280043A240759850438E01438E0475D7E875E9
:080D3800D6FF438E10D2AC225D
:100D5600538E7F5389F0E4F58A758CDCC28DD28C74
:030D6600D2A922ED
:100D6900438E4053890F758BCD758DD4C28FD28E2A
:030D7900D2AB22D8
:1008E60090000C7401F0E4A3F0900010F090000E5C
:1008F600F0A3F0900011F0A3F0A3F0A304F0E4A39A
:10090600F0A3F0A3F0A3F0A3F0A3F0A3F0A304F0E8
:10091600E4A3F0A3F0A3F0A3F0A3F0A3F0A3F0A345
:1009260004F0E4A3F0A3F0A3F0A3F0A3F0A3F0A3D4
:10093600F0A304F0E4A3F0A3F0A3F0A3F0A3F0A3C4
:10094600F0A3F0A304F0E4A3F0A3F0A3F0A3F0A3B4
:06095600F0A3F0A3F02263
:0C0D8800E4900000F0A3F0A3F0A3F02220
:100D4000C2B3C2B4C2B5C2A0C2A1C2A3E49000089B
:060D5000F090000AF02201
:100A1600120A61120ACE120B03120B38120B6D1258
:100A26000BA290001BE0FF900013E04FFF90002305
:100A3600E04FFF90002BE04FFF900033E04FFF9018
:100A4600003BE0B401047E0180027E00EE4F600AA6
:0B0A56009000007401F0900008F022F6
:100A610020941490000A7401F0C2B3900000F0E4E5
:100A710090000CF0A3F02290000CE0B40118209338
:100A810015D2B3E4F090000EF0A3F0900011F0A3A2
:070A9100F090000D04F022BB
:100ACE0020A51490000A7401F0C2B4900000F0E466
:100ADE00900014F0A3F022900014E0B4011620A6AA
:100AEE0013D2B4E4F0900017F0A3F0A3F0A3F090AB
:050AFE00001504F022C8
:100B030020911490000A7401F0C2B5900000F0E443
:100B130090001CF0A3F02290001CE0B40116209278
:100B230013D2B5E4F090001FF0A3F0A3F0A3F0906C
:050B3300001D04F0228A
:100B380020801490000A7401F0C2A0900000F0E434
:100B4800900024F0A3F022900024E0B4011620A71E
:100B580013D2A0E4F0900027F0A3F0A3F0A3F09044
:050B6800002504F0224D
:100B6D0020831490000A7401F0C2A1900000F0E4FB
:100B7D0090002CF0A3F02290002CE0B401162090F0
:100B8D0013D2A1E4F090002FF0A3F0A3F0A3F09006
:050B9D00002D04F02210
:100BA20020821490000A7401F0C2A3900000F0E4C5
:100BB200900034F0A3F022900034E0B401162081BA
:100BC20013D2A3E4F0900037F0A3F0A3F0A3F090C7
:050BD200003504F022D3
:10095C0020A4597F647E00120C9720A4F3C2B3C26A
:10096C00B4C2B5C2A0C2A1C2A3D2CCE4900000F024
:10097C00900008F090000AF090000C04F0E4900055
:10098C0013F0A304F0E490001BF0A304F0E4900037
:10099C0023F0A304F0E490002BF0A304F0E4900007
:0D09AC0033F0A304F0E490003BF080A4229F
:03000B00020026CA
:10002600C0E0C083C082C0D075D000C006C00790B3
:10003600000DE0640160030200C9900010E0703C0E
:1000460090000FE004F0700690000EE004F09000BF
:1000560004E0FEA3E0FFC390000FE09F90000EE0D7
:100066009E406020930C9000107401F090000EE406
:10007600804EC2B390000DE4F0A38044900012E0DD
:1000860004F07006900011E004F0900006E0FEA374
:10009600E0FFC3900012E09F900011E09E402420F4
:1000A6009312C2B390000DE4F090001304F0900098
:1000B60010E4800AC2B390000DE4F0900010F0A3A3
:1000C600F0A3F0900015E06401600302015BA3E079
:1000D600703E90001AE004F07006900019E004F0FB
:1000E600900004E0FEA3E0FFC390001AE09F90009A
:1000F60019E09E406020A60C9000167401F0900056
:1001060019E4804EC2B4900015E4F09000198042C4
:10011600900018E004F07006900017E004F09000DC
:1001260006E0FEA3E0FFC3900018E09F900017E0F2
:100136009E402220A612C2B4900015E4F090001B47
:1001460004F0900016E48008C2B4900015E4F0A311
:10015600F0A3F0A3F090001DE0640160030201ED3E
:10016600A3E0703E900022E004F07006900021E0CB
:1001760004F0900004E0FEA3E0FFC3900022E09F9D
:10018600900021E09E406020920C90001E7401F0C9
:10019600900021E4804EC2B590001DE4F09000214D
:1001A6008042900020E004F0700690001FE004F00A
:1001B600900006E0FEA3E0FFC3900020E09F9000C1
:1001C6001FE09E4022209212C2B590001DE4F090DE
:1001D600002304F090001EE48008C2B590001DE4E0
:1001E600F0A3F0A3F0A3F0900025E0640160030201
:1001F600027FA3E0703E90002AE004F070069000B3
:1002060029E004F0900004E0FEA3E0FFC390002A7A
:10021600E09F900029E09E406020A70C9000267485
:1002260001F0900029E4804EC2A0900025E4F090F1
:1002360000298042900028E004F07006900027E034
:1002460004F0900006E0FEA3E0FFC3900028E09FC4
:10025600900027E09E402220A712C2A0900025E42D
:10026600F090002B04F0900026E48008C2A09000D5
:1002760025E4F0A3F0A3F0A3F090002DE064016064
:1002860003020311A3E0703E900032E004F0700612
:10029600900031E004F0900004E0FEA3E0FFC3907C
:1002A6000032E09F900031E09E406020900C90006C
:1002B6002E7401F0900031E4804EC2A190002DE42E
:1002C600F09000318042900030E004F0700690001B
:1002D6002FE004F0900006E0FEA3E0FFC39000309C
:1002E600E09F90002FE09E4022209012C2A1900035
:1002F6002DE4F090003304F090002EE48008C2A1B3
:1003060090002DE4F0A3F0A3F0A3F0900035E06494
:100316000160030203A3A3E0703E90003AE004F0FC
:100326007006900039E004F0900004E0FEA3E0FFC0
:10033600C390003AE09F900039E09E406020810C17
:100346009000367401F0900039E4804EC2A390000C
:1003560035E4F09000398042900038E004F07006F1
:10036600900037E004F0900006E0FEA3E0FFC390A3
:100376000038E09F900037E09E4022208112C2A301
:10038600900035E4F090003B04F0900036E48008DD
:10039600C2A3900035E4F0A3F0A3F0A3F0D007D0F9
:0A03A60006D0D0D082D083D0E03220
:03001B00020715C4
:10071500C0E0C083C082C0D075D000C00790007013
:10072500E07002A3E06024900071E024FFF09000E7
:1007350070E034FFF0E07002A3E0700F900072E00B
:10074500D39400400690003D7401F0900000E0B4A1
:10075500012F900002E004F07006900001E004F023
:10076500900001E0B40121A3E0B4F41C900001E481
:10077500F0A3F0A3E0FFC374019FF024FF92CC80A7
:1007850007900001E4F0A3F0900008E0B40113A382
:10079500E004F0D2A2E0B46409C2A2900008E4F03B
:1007A500A3F090000AE0B40113A3E004F0D2B2E094
:1007B500B46409C2B290000AE4F0A3F0D007D0D027
:0707C500D082D083D0E032A6
:100CF2007F107E00120C77EFB4FF0D90009D7401FF
:0B0D0200F090009CF0120C0B020A980D
:100C0B00E4FFFE120CB790009DE0FDE4FFFE120C1A
:100C1B005590009CE0FD7F017E00120C557D587FA6
:060C2B00107E00020C55D2
:100A9800E4FFFE120C7790009DEFF0E075F064A47F
:100AA800FF900004E5F0F0A3EFF07F017E00120C48
:100AB8007790009CEFF0E075F064A4FF900006E5E5
:060AC800F0F0A3EFF022A4
:100D0D00E490003CF0A3F0900056F090006EF0F0EF
:0B0D1D00A3F0A3F0A3F0A3F0A3F022CA
:0300230002086A66
:10086A00C0E0C083C082C0D075D000C00730992CC8
:10087A00C29990003CE4F090006EE0601AA3E0FF99
:10088A0004F0743E2FF582E43400F583E0F5999084
:10089A00006EE014F0800590006FE4F0309832C2E8
:1008AA009890003DE07021900072E0D394184002C5
:1008BA00E4F0900072E02456F582E43400F583E512
:1008CA0099F0900072E004F0900070E4F0A37432A2
:0C08DA00F0D007D0D0D082D083D0E03224
:080003008F993099FDC299228A
:100C9700D3EF9400EE9400401600000075080B7522
:0F0CA70009BED509FDD508FAEF1F70E41E80E1E4
:010CB600221B
:1009B90090003DE064017054F0900072F090005690
:1009C900E064BB7047A3E090009DF0900058E09070
:1009D900009CF0120C0B90009DE075F064A4FF9050
:1009E9000004E5F0F0A3EFF090009CE075F064A43A
:1009F900FF900006E5F0F0A3EFF090003E74AAF036
:0D0A0900A374CCF090006E7402F0D299221C
:1003B000E5082477F582E43400F583E0050822900F
:1003C0000074300703900077E475F00112082402EE
:1003D00007CC2000E97F2ED2008018EF540F249024
:1003E000D43440D4FF30040BEF24BFB41A005003C0
:1003F0002461FFE50960021509050CE50C70020592
:100400000B30070E900074E475F001120824EF021F
:1004100008120200037403D2078003E4C207F50840
:1004200090007412083BE4F509F50BF50CE5096042
:10043000077F201203F380F5750AFFC201C200C2D4
:1004400002C203C205C206C2081203BFFF700D300C
:1004500007057F00120404AF0CAE0B22B4255FC267
:10046000D5C2041203BFFF24D0B40A00501A75F09D
:100470000A780930D50508B6FF0106C6A426F6207D
:10048000D5047002D20380D924CFB41A00EF5004EF
:10049000C2E5D204020605D20180C6D20080C0D2D5
:1004A0000280BCD2D580BAD20580B47F201203F37B
:1004B0002002077401B5090040F11203B0FF1203D6
:1004C000F302042DD208D20680951203B0FB12036A
:1004D000B0FA1203B0F94A4B700679D67A067BFF60
:1004E00020022EE509602A7E008E827583001207A5
:1004F000E560060EEE650A70F0C2D5EBC0E0EAC01A
:10050000E0E9C0E0EE12064CD0E0F9D0E0FAD0E02D
:10051000FB1207CCFF60AAEBC0E0EAC0E0E9C0E054
:100520001203F3D0E02401F9D0E03400FAD0E0FB6C
:10053000E50A0460DCD50AD980877BFF7A06794812
:10054000D202809C791080027908C206C208800815
:10055000D2D5790A8004790AC2D5E50A047002F579
:100560000AE4FAFDFEFF1203B0FC7B08200113121F
:1005700003B0FD7B1030000A1203B0FE1203B0FF7F
:100580007B20EC3382D592D55013C3E43000069F14
:10059000FFE49EFEE42001039DFDE49CFCE4CBF817
:1005A000C201EC700CCFCECDCCE824F8F870F3800B
:1005B00017C3EF33FFEE33FEED33FDEC33FCEB33CB
:1005C000FB994002FB0FD8E9EB300105F8D0E0C4FD
:1005D00048B201C0E00AEC4D4E4F78207B0070C25B
:1005E000EAB50A0040BCC0E012064ED0F0D0E020D0
:1005F0000104C4C0E0C4B201C0F01203DCD0F0D5E5
:10060000F0EB02042D12084404CA53054458049B1D
:100610004C04974205484F05504405504904B043E7
:08062000055655053A46053A5E
:1006280045053A4706F650049F2D04A32E04C62B11
:1006380004A72304C42006DF2A045F48000004BE80
:100648003F3F3F00790AA2D5200314300509B910AD
:10065800020404B9080104A2D520060250010420AE
:1006680002689202B509005034C0E07F20300319B7
:100678007F30A20272067205500F1206A5C202C28E
:1006880006C205C2087F30800F300503E9C0E012BA
:1006980003F3300503D0E0F9D0E0B509CC300517F5
:1006A8007F30B9100C1203F37F583004077F78802D
:1006B80003B908031203F33002057F2D0203F37F09
:1006C800202008F87F2B2006F322920280CF286E84
:1006D800756C6C2900D2011203B03001F8C20178A0
:1006E8000930D50108F602045F2D5043495812031A
:1006F800B02403B405004001E49006F1931203E42A
:0D070800743A1203E4D2037509040205449B
:1007CC00BB010689828A83E0225002E722BBFE022B
:0907DC00E32289828A83E493225E
:1007E500BB010CE58229F582E5833AF583E02250C9
:1007F50006E92582F8E622BBFE06E92582F8E22213
:0D080500E58229F582E5833AF583E493222C
:10081200BB010689828A83F0225002F722BBFE01C5
:02082200F322BF
:10082400F8E0FBA3A3E0F925F0F0E582158270025D
:070834001583E0FA38F02201
:09083B00EBF0A3EAF0A3E9F022BE
:10084400D083D082F8E4937012740193700DA3A343
:1008540093F8740193F5828883E473740293686057
:06086400EFA3A3A380DF57
:00000001FF
