:03000000020B43AD
:0C0B4300787FE4F6D8FD758121020B8A52
:0D000E00E4F5C7F5C5F5C675C380F5C4223D
:100F740043C78043C70375C5038FC4EEF5C375C665
:0E0F84005A75C6A57F0A7E00120F5402000E99
:100F120043C78043C70375C5028FC4EEF5C3AF054F
:100F22008FC275C65A75C6A57F0A7E00120F54027B
:020F3200000EAF
:100F340043C78043C70375C5018FC4EEF5C375C6A7
:100F44005A75C6A57F0A7E00120F54AFC202000E66
:100F9200E4F594F593F592F59175961FF59575B272
:0D0FA200BCF5B1F5B4F5B375CA10F5C92260
:100840003D3D3D3D3D3D3D3D3D3D20636F6465206B
:100850007374617274203D3D3D3D3D3D3D3D3D3DE8
:10086000200D0A006D6F746F72315F73746F705F6B
:10087000636E74206973202564200D0A006D6F7407
:100880006F72315F64656C61795F636E7420697348
:10089000202564200D0A006C6576656C315F6C2044
:1008A0006973202564200D0A006C6576656C315FE4
:1008B00068206973202564200D0A006C6576656CDC
:1008C000325F68206973202564200D0A006C65760C
:1008D000656C335F68206973202564200D0A006C05
:1008E0006576656C345F68206973202564200D0A85
:1008F000006C6576656C315F685F636E7420697348
:10090000202564200D0A006C6576656C325F685F97
:10091000636E74206973202564200D0A006C65766F
:10092000656C335F685F636E742069732025642093
:100930000D0A006C6576656C345F685F636E7420C9
:090940006973202564200D0A00F2
:1005E10043BA80120F92120FFC12100F120FE41275
:1005F1000FAF120FCA120AAA121033120717D2AF85
:100601007BFF7A087940120091120E90120DF112BF
:10061100001E1207177BFF7A08796490001BE0FF28
:10062100A3E0900086CFF0A3EFF01200917BFF7A58
:1006310008797D90001EE0FFA3E0900086CFF0A333
:10064100EFF01200917BFF7A087997900008E0FFA4
:10065100900086E4F0A3EFF01200917BFF7A087915
:10066100A9900000E0FF900086E4F0A3EFF01200F3
:10067100917BFF7A0879BB900001E0FF900086E44E
:10068100F0A3EFF01200917BFF7A0879CD9000067C
:10069100E0FF900086E4F0A3EFF01200917BFF7A77
:1006A1000879DF900007E0FF900086E4F0A3EFF007
:1006B1001200917BFF7A0879F190000AE0FFA3E034
:1006C100900086CFF0A3EFF01200917BFF7A0979B9
:1006D1000790000CE0FFA3E0900086CFF0A3EFF0BD
:1006E1001200917BFF7A09791D90000EE0FFA3E0D3
:1006F100900086CFF0A3EFF01200917BFF7A097989
:1007010033900010E0FFA3E0900086CFF0A3EFF05C
:0607110012009102060A2D
:100FE40043A240759850438E01438E0475D7E8752B
:080FF400D6FF438E10D2AC229F
:100FFC00538E7F5389F0E4F58A758CDCC28DD28CCC
:03100C00D2A92244
:10100F00538EBF53890FE4F58B758DDCC28FD28E53
:03101F00D2AB222F
:101022004100090141004A0141000101410007015B
:100AAA00E490000AF0A3F0A3F0A3F0A3F0A3F0A34C
:100ABA00F0A3F0A37446F0A37450F0A3740BF0A350
:100ACA0074B8F09000197401F0E4A3F090001DF0DE
:100ADA0090001BF0A3F090001EF0A3F0A3F0A30473
:100AEA00F0E4A3F0A3F0A3F0A3F0A3F0A3F0A3F023
:100AFA00A304F0E4A3F0A3F0A3F0A3F0A3F0A3F0FF
:100B0A00A3F0A304F0E4A3F0A3F0A3F0A3F0A3F0EE
:100B1A00A3F0A3F0A304F0E4A3F0A3F0A3F0A3F0DE
:100B2A00A3F0A3F0A3F0A304F0E4A3F0A3F0A3F0CE
:090B3A00A3F0A3F0A3F0A3F02244
:0E103300D2CCE4900002F0A3F0A3F0A3F022D0
:100FCA00C2B3C2B4C2B5C2A0C2A1C2A3E490001601
:0A0FDA00F0900018F0C2A2C2B2228B
:100DF10020A45B7F647E00120F5420A4F3C2B3C20F
:100E0100B4C2B5C2A0D2CCE4900002F0C2A290005C
:100E110016F0900018F0900017F090001904F0E41B
:100E2100900020F0A304F0E4900028F0A304F0E483
:100E3100900030F0A304F0E4900038F0A304F0E453
:0F0E4100900040F0A304F0E4900048F080A2225B
:100E9000120C4B120CB6120D1F120D88900028E098
:100EA000FF900020E04FFF900030E04FFF900038AF
:100EB000E0B401047E0180027E00EE4F6008D2A201
:070EC0009000027401F02212
:100C4B00900000E0703B90000BE004F07006900009
:100C5B000AE004F090000AE07004A3E0640A704A12
:100C6B0090001604F0C2A0C2B5C2B4C2B3E49000A7
:100C7B0002F0C2CC900019F0A3F090000AF0A3F0A0
:100C8B0022900019E0B40122900008E0701CD2B34E
:100C9B00900019F090001BF0A3F090001EF0A3F051
:0B0CAB0090001A04F0E490001DF022FD
:100CB600900001E0703B90000DE004F0700690009B
:100CC6000CE004F090000CE07004A3E0640A7048A5
:100CD60090001604F0C2A0C2B5C2B4C2B3E490003C
:100CE60002F0C2CC900021F0A3F090000CF0A3F02B
:100CF60022900021E0B40120900009E0701AD2B4DD
:100D0600900021F0900026F0A3F0900024F0A3F0CC
:090D160090002204F0E4A3F02295
:100D1F00900006E0703B90000FE004F0700690002A
:100D2F000EE004F090000EE07004A3E0640A704837
:100D3F0090001604F0C2A0C2B5C2B4C2B3E49000D2
:100D4F0002F0C2CC900029F0A3F090000EF0A3F0B7
:100D5F0022900029E0B40120900049E0701AD2B52A
:100D6F00900029F090002EF0A3F090002CF0A3F04B
:090D7F0090002A04F0E4A3F02224
:100D8800900007E0703B900011E004F070069000BE
:100D980010E004F0900010E07004A3E0640A7048CA
:100DA80090001604F0C2A0C2B5C2B4C2B3E4900069
:100DB80002F0C2CC900031F0A3F0900010F0A3F044
:100DC80022900031E0B4012090004AE0701AD2A0CD
:100DD800900031F0900036F0A3F0900034F0A3F0CA
:090DE80090003204F0E4A3F022B3
:03000B0002038B62
:10038B00C0E0C083C082C0D075D000C006C007904B
:10039B00001AE06401600302042A90001DE070481B
:1003AB0090001CE004F0700690001BE004F090003D
:1003BB0008E0B4010C90001BE4F0A3F0A304F08060
:1003CB005E900012E0FEA3E0FFC390001CE09F9044
:1003DB00001BE09E4049C2B390001AE4F0A3F0A3C7
:1003EB00F090002004F0803790001FE004F07006BE
:1003FB0090001EE004F0900014E0FEA3E0FFC39019
:10040B00001FE09F90001EE09E4014C2B390001AA4
:10041B00E4F090001DF0A3F0A3F090001904F0900D
:10042B000022E0640160030204B8A3E0704A90006C
:10043B0027E004F07006900026E004F0900009E03D
:10044B00B4010E900026E4F0A3F090002304F0809A
:10045B005C900012E0FEA3E0FFC3900027E09F90AA
:10046B000026E09E4047C2B4900022E4F0900026A4
:10047B00F0A3F0A304F08035900025E004F07006A3
:10048B00900024E004F0900014E0FEA3E0FFC39082
:10049B000025E09F900024E09E4012C2B490002201
:1004AB00E4F0A3F0A3F0A3F090002104F090002A55
:1004BB00E064016003020546A3E0704A90002FE060
:1004CB0004F0700690002EE004F0900049E0B401B7
:1004DB000E90002EE4F0A3F090002B04F0805C90C3
:1004EB000012E0FEA3E0FFC390002FE09F90002ED0
:1004FB00E09E4047C2B590002AE4F090002EF0A396
:10050B00F0A304F0803590002DE004F0700690000D
:10051B002CE004F0900014E0FEA3E0FFC390002D4C
:10052B00E09F90002CE09E4012C2B590002AE4F0B0
:10053B00A3F0A3F0A3F090002904F0900032E06444
:10054B000160030205D4A3E0704A900037E004F089
:10055B007006900036E004F090004AE0B4010E9073
:10056B000036E4F0A3F090003304F0805C900012AE
:10057B00E0FEA3E0FFC3900037E09F900036E09EC3
:10058B004047C2A0900032E4F0900036F0A3F0A3F5
:10059B0004F08035900035E004F07006900034E0F4
:1005AB0004F0900014E0FEA3E0FFC3900035E09F41
:1005BB00900034E09E4012C2A0900032E4F0A3F011
:1005CB00A3F0A3F090003104F0D007D006D0D0D028
:0605DB0082D083D0E03263
:03001B000209498E
:10094900C0E0C083C082C0D075D000C00790007FCE
:10095900E07002A3E06024900080E024FFF09000A2
:100969007FE034FFF0E07002A3E0700F900081E0B7
:10097900D39400400690004C7401F0900002E064AA
:10098900017032900004E004F07006900003E00466
:10099900F0900003E07004A3E06432701F9000033C
:1009A900F0A3F0A3E0FFC374019FF07004D2CC80E0
:1009B9000BC2CC8007900003E4F0A3F0900016E08E
:1009C900B40123900018E0701D900017E004F0D2E4
:1009D900B2E0B46411C2B2900016E4F090001804B9
:1009E900F0900017E4F0D007D0D0D082D083D0E0C7
:0109F90032CB
:10071700E4FF900083F0F9FDE4FEEFB408005040D9
:1007270090072EF828287302074602074A02074E49
:1007370002075202075602075A02075E020762A221
:1007470093801AA2948016A2A68012A2A5800EA258
:1007570092800AA2918006A2A78002A280E433FDBC
:10076700ED7008900083E004F08001090EEE640A42
:1007770070A8900083E0C3994061EFB4080040037C
:10078700020830900791F82828730207A90207B1D9
:100797000207B80207BF0207C60207CD0207D40245
:1007A70007DBE4900008F0020830E4900000F080D6
:1007B70078E4900009F08071E4900001F0806AE429
:1007C700900049F08063E4900006F0805CE49000BC
:1007D7004AF08055E4900007F0804EEFB4080050CF
:1007E700489007EFF828287302080702080C020848
:1007F7001102081602081B02082002082502082A0F
:100807009000088021900000801C900009801790BC
:1008170000018012900049800D900006800890002A
:100827004A80039000077401F0E4F9900083F00F09
:08083700EF640A600302071FD1
:01083F002296
:100EEF007F107E00120F34EFB4FF159000ADE4F0C9
:100EFF00A374B4F09000ABE4F0A3741EF0120EC70D
:030F0F00020E507F
:100EC700E4FFFE120F749000ADA3E0FDE4FFFE12F5
:100ED7000F129000ABA3E0FD7F017E00120F127D81
:080EE700587F107E00020F127B
:100E5000E4FFFE120F347E009000ADEEF0A3EFF041
:100E60007C007D641209FA900012EEF0A3EFF07F8F
:100E7000017E00120F347E009000ABEEF0A3EFF085
:100E80007C007D641209FA900014EEF0A3EFF022CA
:100FAF00E490004BF0A3F0900065F090007DF0F01E
:0B0FBF00A3F0A3F0A3F0A3F0A3F02226
:03002300020BCFFE
:100BCF00C0E0C083C082C0D075D000C00730992C60
:100BDF00C29990004BE4F090007DE0601AA3E0FF13
:100BEF0004F0744D2FF582E43400F583E0F599900D
:100BFF00007DE014F0800590007EE4F0309832C262
:100C0F009890004CE07021900081E0D3941840023E
:100C1F00E4F0900081E02465F582E43400F583E58B
:100C2F0099F0900081E004F090007FE4F0A3740548
:0C0C3F00F0D007D0D0D082D083D0E032BB
:080003008F993099FDC299228A
:100F5400D3EF9400EE9400401600000075080B7562
:0F0F640009BED509FDD508FAEF1F70E41E80E124
:010F7300225B
:01001E0022BF
:100B4F000205E1E493A3F8E493A34003F68001F2D6
:100B5F0008DFF48029E493A3F85407240CC8C333A7
:100B6F00C4540F4420C8834004F456800146F6DF76
:100B7F00E4800B0102040810204080901022E47ED4
:100B8F00019360BCA3FF543F30E509541FFEE4936B
:100B9F00A360010ECF54C025E060A840B8E493A332
:100BAF00FAE493A3F8E493A3C8C582C8CAC583CA5D
:100BBF00F0A3C8C582C8CAC583CADFE9DEE780BE15
:0110320000BD
:1009FA00EF8DF0A4A8F0CF8CF0A428CE8DF0A42E11
:020A0A00FE22CA
:10002600E5082486F582E43400F583E0050822908D
:100036000083300703900086E475F001120A64021B
:100046000A0C2000E97F2ED2008018EF540F24906E
:10005600D43440D4FF30040BEF24BFB41A0050034D
:100066002461FFE50960021509050CE50C7002051F
:100076000B30070E900083E475F001120A64EF025C
:100086000A520200037403D2078003E4C207F5088C
:10009600900083120A7BE4F509F50BF50CE509607F
:1000A600077F2012006980F5750AFFC201C200C2EF
:1000B60002C203C205C206C208120035FF700D3027
:1000C60007057F0012007AAF0CAE0B22B4255FC283
:1000D600D5C204120035FF24D0B40A00501A75F0B8
:1000E6000A780930D50508B6FF0106C6A426F6200B
:1000F600D5047002D20380D924CFB41A00EF50047D
:10010600C2E5D20402027BD20180C6D20080C0D2F0
:100116000280BCD2D580BAD20580B47F2012006995
:100126002002077401B5090040F1120026FF1200F3
:10013600690200A3D208D2068095120026FB12009F
:1001460026FA120026F94A4B7006794C7A037BFF91
:1001560020022EE509602A7E008E82758300120A2F
:100166002560060EEE650A70F0C2D5EBC0E0EAC067
:10017600E0E9C0E0EE1202C2D0E0F9D0E0FAD0E049
:10018600FB120A0CFF60AAEBC0E0EAC0E0E9C0E09F
:10019600120069D0E02401F9D0E03400FAD0E0FB87
:1001A600E50A0460DCD50AD980877BFF7A0279BE2E
:1001B600D202809C791080027908C206C2088008A3
:1001C600D2D5790A8004790AC2D5E50A047002F507
:1001D6000AE4FAFDFEFF120026FC7B08200113123A
:1001E6000026FD7B1030000A120026FE120026FFB4
:1001F6007B20EC3382D592D55013C3E43000069FA2
:10020600FFE49EFEE42001039DFDE49CFCE4CBF8A4
:10021600C201EC700CCFCECDCCE824F8F870F38098
:1002260017C3EF33FFEE33FEED33FDEC33FCEB3358
:10023600FB994002FB0FD8E9EB300105F8D0E0C48A
:1002460048B201C0E00AEC4D4E4F78207B0070C2E8
:10025600EAB50A0040BCC0E01202C4D0F0D0E020EB
:100266000104C4C0E0C4B201C0F0120052D0F0D5FF
:10027600F0EB0200A3120A8401405301BA5801119F
:100286004C010D4201BE4F01C64401C64901264339
:0802960001CC5501B04601B096
:10029E004501B047036C5001152D01192E013C2B61
:1002AE00011D23013A2003552A00D54800000134D0
:1002BE003F3F3F00790AA2D5200314300509B9103B
:1002CE00020404B9080104A2D5200602500104203C
:1002DE0002689202B509005034C0E07F2030031945
:1002EE007F30A20272067205500F12031BC202C2A9
:1002FE0006C205C2087F30800F300503E9C0E01248
:10030E000069300503D0E0F9D0E0B509CC3005170F
:10031E007F30B9100C1200697F583004077F788047
:10032E0003B908031200693002057F2D0200697FB0
:10033E00202008F87F2B2006F322920280CF286E11
:10034E00756C6C2900D2011200263001F8C20178BA
:10035E000930D50108F60200D52D50434958120038
:10036E00262403B405004001E49003679312005A5B
:0D037E00743A12005AD2037509040201BA44
:100A0C00BB010689828A83E0225002E722BBFE02E8
:090A1C00E32289828A83E493221B
:100A2500BB010CE58229F582E5833AF583E0225086
:100A350006E92582F8E622BBFE06E92582F8E222D0
:0D0A4500E58229F582E5833AF583E49322EA
:100A5200BB010689828A83F0225002F722BBFE0183
:020A6200F3227D
:100A6400F8E0FBA3A3E0F925F0F0E582158270021B
:070A74001583E0FA38F022BF
:090A7B00EBF0A3EAF0A3E9F0227C
:100A8400D083D082F8E4937012740193700DA3A301
:100A940093F8740193F5828883E473740293686015
:060AA400EFA3A3A380DF15
:00000001FF
