:03000000020B5799
:0C0B5700787FE4F6D8FD7581210209E0EA
:0D000E00E4F5C7F5C5F5C675C380F5C4223D
:100AB70043C78043C70375C5038FC4EEF5C375C627
:0E0AC7005A75C6A57F0A7E00120A9702000E1D
:100A550043C78043C70375C5028FC4EEF5C3AF0511
:100A65008FC275C65A75C6A57F0A7E00120A9702FF
:020A7500000E71
:100A770043C78043C70375C5018FC4EEF5C375C669
:100A87005A75C6A57F0A7E00120A97AFC202000EEA
:100AD500E4F594F593F592F59175960B759510756A
:0E0AE500B2B8F5B1F5B4F5B375CA10F5C92273
:100A31003D3D3D3D3D3D3D3D3D3D20636F64652078
:100A41007374617274203D3D3D3D3D3D3D3D3D3DF5
:040A5100200D0A006A
:1009E00043BA80120AD5120B24120B371206E312F7
:1009F0000B63120B4AD2AF120AF37BFF7A0A7931EA
:0B0A00001200911207FE12074780F859
:100B0E00759850438E01438E0475D7E875D6FF4312
:060B1E008E1043AF01221E
:03002300020B6F5E
:0B0B6F00309902C299309802C29832FF
:080003002099FDD2998F99228A
:10087B0090005AEBF0A3EAF0A3E9F090005AE0FBEA
:10088B00A3E0FAA3E0F912062F601790005AA3E435
:10089B0075F001120648A9F0FA12062FFF12000399
:0308AB0080D922CF
:080B7A008F993099FDC2992208
:100B2400538E7F5389F0E4F58A758CDCC28DD28CA8
:030B3400D2A92221
:100B3700538EBF53890FE4F58B758DDCC28FD28E30
:030B4700D2AB220C
:1006E3009000087401F0E4A3F0A3F0A3F0A3F0A337
:1006F300F0A3F0A304F0E4A3F0A3F0A3F0A3F0A30A
:10070300F0A3F0A304F0E4A3F0A3F0A3F0A3F0A3F9
:10071300F0A3F0A304F0E4A3F0A3F0A3F0A3F0A3E9
:10072300F0A3F0A304F0E4A3F0A3F0A3F0A3F0A3D9
:10073300F0A3F0A304F0E4A3F0A3F0A3F0A3F0A3C9
:04074300F0A3F0220D
:0C0B6300E4900000F0A3F0A3F0A3F02247
:0D0B4A00C2B3C2B4C2B5C2A0C2A1C2A322F0
:1007FE001208AE1208E112091412094712097A12F0
:10080E0009AD900011E0FF90000AE04FFF90001834
:10081E00E04FFF90001FE04FFF900026E04FFF904B
:10082E00002DE0B401047E0180027E00EE4F6006D2
:07083E009000007401F0229C
:1008AE00309412D2B2C2B39000007401F0E4900002
:1008BE0008F0A3F022900008E0B40116209313D2A2
:1008CE00B3E4F090000BF0A3F0A3F0A3F0900009B6
:0308DE0004F02201
:1008E10030A512D2B2C2B49000007401F0E49000BD
:1008F1000FF0A3F02290000FE0B4011620A613D24E
:10090100B4E4F0900012F0A3F0A3F0A3F090001073
:0309110004F022CD
:10091400309112D2B2C2B59000007401F0E490009C
:1009240016F0A3F022900016E0B40116209213D220
:10093400B5E4F0900019F0A3F0A3F0A3F090001731
:0309440004F0229A
:10094700308012D2B2C2A09000007401F0E490008F
:100957001DF0A3F02290001DE0B4011620A713D2CA
:10096700A0E4F0900020F0A3F0A3F0A3F090001E05
:0309770004F02267
:10097A00308312D2B2C2A19000007401F0E4900058
:10098A0024F0A3F022900024E0B40116209013D2A0
:10099A00A1E4F0900027F0A3F0A3F0A3F0900025C3
:0309AA0004F02234
:1009AD00308212D2B2C2A39000007401F0E4900024
:1009BD002BF0A3F02290002BE0B40116208113D26E
:1009CD00A3E4F090002EF0A3F0A3F0A3F090002C80
:0309DD0004F02201
:1007470020A45F7F647E00120A9720A4F3C2B3C27D
:10075700B4C2B5C2A0C2A1C2A3D2CCE4900000F03B
:10076700C2B2C2A290000804F0E490000AF0900020
:100777000F04F0E4900011F090001604F0E49000EC
:1007870018F090001D04F0E490001FF0900024047E
:10079700F0E4900026F090002B04F0E490002DF098
:0307A700809E220F
:03000B0002038B62
:10038B00C0E0C083C082C0D075D000C006C007904B
:10039B000009E06401706420933390000CE004F0DA
:1003AB00700690000BE004F0900004E0FEA3E0FF69
:1003BB0090000BE0B50644A3E0B5073FD2A2C2B351
:1003CB0090000A7401F0900009E4F0802E90000E6A
:1003DB00E004F0700690000DE004F0900006E0FEE3
:1003EB00A3E0FF90000DE0B50611A3E0B5070CC22A
:1003FB00B3900009E4F090000804F0900010E06462
:10040B0001706420A633900013E004F07006900096
:10041B0012E004F0900004E0FEA3E0FF900012E075
:10042B00B50644A3E0B5073FD2A2C2B49000117445
:10043B0001F0900010E4F0802E900015E004F070B5
:10044B0006900014E004F0900006E0FEA3E0FF909D
:10045B000014E0B50611A3E0B5070CC2B490001070
:10046B00E4F090000F04F0900017E064017064203A
:10047B00923390001AE004F07006900019E004F03B
:10048B00900004E0FEA3E0FF900019E0B50644A342
:10049B00E0B5073FD2A2C2B59000187401F09000EE
:1004AB0017E4F0802E90001CE004F0700690001B07
:1004BB00E004F0900006E0FEA3E0FF90001BE0B527
:1004CB000611A3E0B5070CC2B5900017E4F090003D
:1004DB001604F090001EE06401706420A7339000B6
:1004EB0021E004F07006900020E004F0900004E09E
:1004FB00FEA3E0FF900020E0B50644A3E0B5073F64
:10050B00D2A2C2A090001F7401F090001EE4F080F4
:10051B002E900023E004F07006900022E004F0908F
:10052B000006E0FEA3E0FF900022E0B50611A3E079
:10053B00B5070CC2A090001EE4F090001D04F090D3
:10054B000025E064017064209033900028E004F0F3
:10055B007006900027E004F0900004E0FEA3E0FF9B
:10056B00900027E0B50644A3E0B5073FD2A2C2A195
:10057B009000267401F0900025E4F0802E90002A64
:10058B00E004F07006900029E004F0900006E0FE15
:10059B00A3E0FF900029E0B50611A3E0B5070CC25C
:1005AB00A1900025E4F090002404F090002CE0646E
:1005BB0001706420813390002FE004F070069000EE
:1005CB002EE004F0900004E0FEA3E0FF90002EE08C
:1005DB00B50644A3E0B5073FD2A2C2A390002D7489
:1005EB0001F090002CE4F0802E900031E004F070CC
:1005FB0006900030E004F0900006E0FEA3E0FF90D0
:10060B000030E0B50611A3E0B5070CC2A390002C97
:10061B00E4F090002B04F0D007D006D0D0D082D0DD
:04062B0083D0E03266
:03001B000207AA2F
:1007AA00C0E0C083C082C0D075D000C007900000EE
:1007BA00E0B4012E900002E004F07006900001E01F
:1007CA0004F0900001E07004A3E06432701B900012
:1007DA0001F0A3F0A3E0FFC374019FF024FF92CCC1
:1007EA008007900001E4F0A3F0D007D0D0D082D0E7
:0407FA0083D0E03296
:100AF3007F107E00120A77EFB4FF0D90005D74053E
:0B0B0300F0A3740AF0120A0B02084570
:100A0B00E4FFFE120AB790005DE0FDE4FFFE120A60
:100A1B005590005EE0FD7F017E00120A557D587FE8
:060A2B00107E00020A55D6
:10084500E4FFFE120A7790005DEFF0E075F064A416
:10085500FF900004E5F0F0A3EFF07F017E00120A9F
:100865007790005EEFF0E075F064A4FF900006E578
:06087500F0F0A3EFF022F9
:100A9700D3EF9400EE9400401600000075080B7524
:0F0AA70009BED509FDD508FAEF1F70E41E80E1E6
:010AB600221D
:10062F00BB010689828A83E0225002E722BBFE02C9
:09063F00E32289828A83E49322FC
:10064800A3F8E0C5F025F0F0E58215827002158365
:06065800E0C838F0E822C2
:10002600E5082435F582E43400F583E005082290DE
:100036000032300703900035E475F00112069D0288
:10004600062F2000E97F2ED2008018EF540F24904F
:10005600D43440D4FF30040BEF24BFB41A0050034D
:100066002461FFE50960021509050CE50C7002051F
:100076000B30070E900032E475F00112069DEF0278
:10008600068B020B7A7403D2078003E4C207F508D5
:100096009000321206B4E4F509F50BF50CE509609B
:1000A600077F2012006980F5750AFFC201C200C2EF
:1000B60002C203C205C206C208120035FF700D3027
:1000C60007057F0012007AAF0CAE0B22B4255FC283
:1000D600D5C204120035FF24D0B40A00501A75F0B8
:1000E6000A780930D50508B6FF0106C6A426F6200B
:1000F600D5047002D20380D924CFB41A00EF50047D
:10010600C2E5D20402027BD20180C6D20080C0D2F0
:100116000280BCD2D580BAD20580B47F2012006995
:100126002002077401B5090040F1120026FF1200F3
:10013600690200A3D208D2068095120026FB12009F
:1001460026FA120026F94A4B7006794C7A037BFF91
:1001560020022EE509602A7E008E82758300120633
:100166005E60060EEE650A70F0C2D5EBC0E0EAC02E
:10017600E0E9C0E0EE1202C2D0E0F9D0E0FAD0E049
:10018600FB12062FFF60AAEBC0E0EAC0E0E9C0E080
:10019600120069D0E02401F9D0E03400FAD0E0FB87
:1001A600E50A0460DCD50AD980877BFF7A0279BE2E
:1001B600D202809C791080027908C206C2088008A3
:1001C600D2D5790A8004790AC2D5E50A047002F507
:1001D6000AE4FAFDFEFF120026FC7B08200113123A
:1001E6000026FD7B1030000A120026FE120026FFB4
:1001F6007B20EC3382D592D55013C3E43000069FA2
:10020600FFE49EFEE42001039DFDE49CFCE4CBF8A4
:10021600C201EC700CCFCECDCCE824F8F870F38098
:1002260017C3EF33FFEE33FEED33FDEC33FCEB3358
:10023600FB994002FB0FD8E9EB300105F8D0E0C48A
:1002460048B201C0E00AEC4D4E4F78207B0070C2E8
:10025600EAB50A0040BCC0E01202C4D0F0D0E020EB
:100266000104C4C0E0C4B201C0F0120052D0F0D5FF
:10027600F0EB0200A31206BD01405301BA5801116A
:100286004C010D4201BE4F01C64401C64901264339
:0802960001CC5501B04601B096
:10029E004501B047036C5001152D01192E013C2B61
:1002AE00011D23013A2003552A00D54800000134D0
:1002BE003F3F3F00790AA2D5200314300509B9103B
:1002CE00020404B9080104A2D5200602500104203C
:1002DE0002689202B509005034C0E07F2030031945
:1002EE007F30A20272067205500F12031BC202C2A9
:1002FE0006C205C2087F30800F300503E9C0E01248
:10030E000069300503D0E0F9D0E0B509CC3005170F
:10031E007F30B9100C1200697F583004077F788047
:10032E0003B908031200693002057F2D0200697FB0
:10033E00202008F87F2B2006F322920280CF286E11
:10034E00756C6C2900D2011200263001F8C20178BA
:10035E000930D50108F60200D52D50434958120038
:10036E00262403B405004001E49003679312005A5B
:0D037E00743A12005AD2037509040201BA44
:10065E00BB010CE58229F582E5833AF583E0225051
:10066E0006E92582F8E622BBFE06E92582F8E2229B
:0D067E00E58229F582E5833AF583E49322B5
:10068B00BB010689828A83F0225002F722BBFE014E
:02069B00F32248
:10069D00F8E0FBA3A3E0F925F0F0E58215827002E6
:0706AD001583E0FA38F0228A
:0906B400EBF0A3EAF0A3E9F02247
:1006BD00D083D082F8E4937012740193700DA3A3CC
:1006CD0093F8740193F5828883E4737402936860E0
:0606DD00EFA3A3A380DFE0
:00000001FF
