:0300000002093BB7
:0C093B00787FE4F6D8FD75812102098266
:0D000E00E4F5C7F5C5F5C675C380F5C4223D
:100E3D0043C78043C70375C5038FC4EEF5C375C69D
:0E0E4D005A75C6A57F0A7E00120E1D02000E09
:100DDB0043C78043C70375C5028FC4EEF5C3AF0588
:100DEB008FC275C65A75C6A57F0A7E00120E1D02EC
:020DFB00000EE8
:100DFD0043C78043C70375C5018FC4EEF5C375C6E0
:100E0D005A75C6A57F0A7E00120E1DAFC202000ED6
:100E5B00E4F594F593F592F59175961FF59575B2AA
:0D0E6B00BCF5B1F5B4F5B375CA10F5C92298
:100D94003D3D3D3D3D3D3D3D3D3D20636F64652012
:100DA4007374617274203D3D3D3D3D3D3D3D3D3D8F
:040DB400200D0A0004
:100CE70043BA80120E5B120EBF120ED2120E93126F
:100CF7000E78120EE512089E120EAB1205E1D2AF66
:100D0700120DB87BFF7A0D7994120091D2A27FD091
:100D17007E07120E1DC2A2120AB0120B16120A4348
:050D27001205E180F25D
:100E930043A240759850438E01438E0475D7E8757D
:080EA300D6FF438E10D2AC22F1
:100EBF00538E7F5389F0E4F58A758CDCC28DD28C0A
:030ECF00D2A92283
:100ED200538EBF53890FE4F58B758DDCC28FD28E92
:030EE200D2AB226E
:080EF60041004B01410008011D
:10089E00E490000BF0A3F0A3F0A3F0A3F0A3F0A359
:1008AE00F0A3F0A37446F0A37450F0A3740BF0A35E
:1008BE0074B8F0E4A3F0A3F0A304F0A3F0E4A3F063
:1008CE0090001EF090001CF0A3F090001FF0A3F01B
:1008DE00A3F0A304F0E4A3F0A3F0A3F0A3F0A3F01D
:1008EE00A3F0A3F0A304F0E4A3F0A3F0A3F0A3F00D
:1008FE00A3F0A3F0A3F0A304F0E4A3F0A3F0A3F0FD
:10090E00A3F0A3F0A3F0A3F0A304F0E4A3F0A3F0EC
:10091E00A3F0A3F0A3F0A3F0A3F0A304F0E4A3F0DC
:0D092E00A3F0A3F0A3F0A3F0A3F0A3F02228
:100EAB00D2CC9000067401F0E4900002F0A3F0A302
:040EBB00F0A3F0228E
:100EE500C2B3C2B4C2B5C2A0C2A1C2A3C2A2C2B299
:010EF50022DA
:100B160020A45B7F647E00120E1D20A4F3C2B3C224
:100B2600B4C2B5C2A0D2CCE4900002F09000060494
:100B3600F0C2A2E4900017F0A3F0A304F0A3F0E43F
:100B4600900021F0A304F0E4900029F0A304F0E45F
:100B5600900031F0A304F0E4900039F0A304F0E42F
:0F0B6600900041F0A304F0E4900049F080A22237
:100AB000120B75120BD3120C2F120C8B900029E025
:100AC000FF900021E04FFF900031E04FFF90003990
:100AD000E0B401047E0180027E00EE4F6037D2A2B6
:100AE0009000027401F0C2B3E490001BF0A3F0A3E5
:100AF000F0C2B4900023F0900027F0A3F0C2B590AC
:100B0000002BF090002FF0A3F0C2A0900033F090E3
:060B10000037F0A3F02203
:100B7500900000E0702790000CE004F070069000F3
:100B85000BE004F090000BE07004A3E0640A703DF4
:100B950090001704F0E490000BF0A3F022E490001D
:100BA5000BF0A3F090001AE0B40122900009E07068
:100BB5001CD2B390001AF090001CF0A3F090001F17
:0E0BC500F0A3F090001B04F0E490001EF0225C
:100BD300900001E0702790000EE004F07006900092
:100BE3000DE004F090000DE07004A3E0640A703B94
:100BF30090001704F0E490000DF0A3F022E49000BD
:100C03000DF0A3F0900022E0B4012090000AE07000
:100C13001AD2B4900022F0900027F0A3F0900025A0
:0C0C2300F0A3F090002304F0E4A3F02202
:100C2F00900007E07027900010E004F0700690002D
:100C3F000FE004F090000FE07004A3E0640A703B33
:100C4F0090001704F0E490000FF0A3F022E490005E
:100C5F000FF0A3F090002AE0B4012090004AE0705A
:100C6F001AD2B590002AF090002FF0A3F090002D2B
:0C0C7F00F0A3F090002B04F0E4A3F0229E
:100C8B00900008E07027900012E004F070069000CE
:100C9B0011E004F0900011E07004A3E0640A703BD3
:100CAB0090001704F0E4900011F0A3F022E4900000
:100CBB0011F0A3F0900032E0B4012090004BE070F3
:100CCB001AD2A0900032F0900037F0A3F0900035CC
:0C0CDB00F0A3F090003304F0E4A3F0223A
:03000B0002038B62
:10038B00C0E0C083C082C0D075D000C006C007904B
:10039B00001BE06401600302042A90001EE0704819
:1003AB0090001DE004F0700690001CE004F090003B
:1003BB0009E0B4010C90001CE4F0A3F0A304F0805E
:1003CB005E900013E0FEA3E0FFC390001DE09F9042
:1003DB00001CE09E4049C2B390001BE4F0A3F0A3C5
:1003EB00F090002104F08037900020E004F07006BC
:1003FB0090001FE004F0900015E0FEA3E0FFC39017
:10040B000020E09F90001FE09E4014C2B390001BA1
:10041B00E4F090001EF0A3F0A3F090001A04F0900B
:10042B000023E0640160030204B8A3E0704A90006B
:10043B0028E004F07006900027E004F090000AE03A
:10044B00B4010E900027E4F0A3F090002404F08098
:10045B005C900013E0FEA3E0FFC3900028E09F90A8
:10046B000027E09E4047C2B4900023E4F0900027A1
:10047B00F0A3F0A304F08035900026E004F07006A2
:10048B00900025E004F0900015E0FEA3E0FFC39080
:10049B000026E09F900025E09E4012C2B4900023FE
:1004AB00E4F0A3F0A3F0A3F090002204F090002B53
:1004BB00E064016003020546A3E0704A900030E05F
:1004CB0004F0700690002FE004F090004AE0B401B5
:1004DB000E90002FE4F0A3F090002C04F0805C90C1
:1004EB000013E0FEA3E0FFC3900030E09F90002FCD
:1004FB00E09E4047C2B590002BE4F090002FF0A394
:10050B00F0A304F0803590002EE004F0700690000C
:10051B002DE004F0900015E0FEA3E0FFC390002E49
:10052B00E09F90002DE09E4012C2B590002BE4F0AE
:10053B00A3F0A3F0A3F090002A04F0900033E06442
:10054B000160030205D4A3E0704A900038E004F088
:10055B007006900037E004F090004BE0B4010E9071
:10056B000037E4F0A3F090003404F0805C900013AB
:10057B00E0FEA3E0FFC3900038E09F900037E09EC1
:10058B004047C2A0900033E4F0900037F0A3F0A3F3
:10059B0004F08035900036E004F07006900035E0F2
:1005AB0004F0900015E0FEA3E0FFC3900036E09F3F
:1005BB00900035E09E4012C2A0900033E4F0A3F00F
:1005CB00A3F0A3F090003204F0D007D006D0D0D027
:0605DB0082D083D0E03263
:03001B0002070ACF
:10070A00C0E0C083C082C0D075D000C0079000800E
:10071A00E07002A3E06024900081E024FFF09000E2
:10072A0080E034FFF0E07002A3E0700F900082E0F6
:10073A00D39400400690004D7401F0900002E064EA
:10074A0001703A900006E064017032900004E004FF
:10075A00F07006900003E004F0900003E07004A338
:10076A00E06432701F900003F0A3F0A3E0FFC374AB
:10077A00019FF07004D2CC800BC2CC80079000039A
:10078A00E4F0A3F0900017E06401704D900019E0C6
:10079A0064017045900018E004F0D2B2E0640A7077
:1007AA0038C2B2900017F0A3F0A3F0900032F09094
:1007BA00002AF0900022F090001AF0900033F09096
:1007CA00002BF0900023F090001BF0C2A0C2B5C22B
:1007DA00B4C2B3900006F0C2CCD007D0D0D082D039
:0407EA0083D0E032A6
:1005E100E4FF900084F0F9FDE4FEEFB40800504010
:1005F1009005F8F82828730206100206140206185E
:1006010002061C02062002062402062802062CA26B
:1006110093801AA2948016A2A68012A2A5800EA28F
:1006210092800AA2918006A2A78002A280E433FDF3
:10063100ED7008900084E004F08001090EEE640A78
:1006410070A8900084E0C3994061EFB408004003B2
:100651000206FA90065BF828287302067302067BED
:1006610002068202068902069002069702069E028F
:1006710006A5E4900009F00206FAE4900000F0807B
:1006810078E490000AF08071E4900001F0806AE45F
:1006910090004AF08063E4900007F0805CE49000F1
:1006A1004BF08055E4900008F0804EEFB408005004
:1006B100489006B9F82828730206D10206D6020628
:1006C100DB0206E00206E50206EA0206EF0206F494
:1006D1009000098021900000801C90000A801790F2
:1006E1000001801290004A800D9000078008900060
:1006F1004B80039000087401F0E4F9900084F00F3E
:08070100EF640A60030205E940
:0107090022CD
:100DB8007F107E00120DFDEFB4FF159000AEE4F039
:100DC800A374B4F09000ACE4F0A3741EF0120D6CA0
:030DD800020D2CDD
:100D6C00E4FFFE120E3D9000AEA3E0FDE4FFFE1288
:100D7C000DDB9000ACA3E0FD7F017E00120DDB7D4E
:080D8C00587F107E00020DDB10
:100D2C00E4FFFE120DFD7E009000AEEEF0A3EFF09E
:100D3C007C007D641207EE900013EEF0A3EFF07FC1
:100D4C00017E00120DFD7E009000ACEEF0A3EFF0E2
:100D5C007C007D641207EE900015EEF0A3EFF022FC
:100E7800E490004CF0A3F0900066F090007EF0F053
:0B0E8800A3F0A3F0A3F0A3F0A3F0225E
:030023000209C708
:1009C700C0E0C083C082C0D075D000C00730992C6A
:1009D700C29990004CE4F090007EE0601AA3E0FF1B
:1009E70004F0744E2FF582E43400F583E0F5999016
:1009F700007EE014F0800590007FE4F0309832C26A
:100A07009890004DE07021900082E0D39418400246
:100A1700E4F0900082E02466F582E43400F583E593
:100A270099F0900082E004F0900080E4F0A3740550
:0C0A3700F0D007D0D0D082D083D0E032C5
:080003008F993099FDC299228A
:100E1D00D3EF9400EE9400401600000075080B759A
:0F0E2D0009BED509FDD508FAEF1F70E41E80E15C
:010E3C002293
:100A430090004DE064017064F0900082F0900066C5
:100A5300E064BB7057A3E0FF9000AEE4F0A3EFF0B7
:100A6300900068E0FF9000ACE4F0A3EFF0120D6C8F
:100A73009000AEE0FEA3E0FF7C007D641207EE90E1
:100A83000013EEF0A3EFF09000ACE0FEA3E0FF1242
:100A930007EE900015EEF0A3EFF090004E74AAF06D
:0D0AA300A374CCF090007E7402F0D2992272
:10094700020CE7E493A3F8E493A34003F68001F2D3
:1009570008DFF48029E493A3F85407240CC8C333B1
:10096700C4540F4420C8834004F456800146F6DF80
:10097700E4800B0102040810204080900EF6E47E0C
:10098700019360BCA3FF543F30E509541FFEE49375
:10099700A360010ECF54C025E060A840B8E493A33C
:1009A700FAE493A3F8E493A3C8C582C8CAC583CA67
:1009B700F0A3C8C582C8CAC583CADFE9DEE780BE1F
:010EFE0000F3
:1007EE00EF8DF0A4A8F0CF8CF0A428CE8DF0A42E1F
:0207FE00FE22D9
:10002600E5082487F582E43400F583E0050822908C
:100036000084300703900087E475F0011208580227
:1000460008002000E97F2ED2008018EF540F24907C
:10005600D43440D4FF30040BEF24BFB41A0050034D
:100066002461FFE50960021509050CE50C7002051F
:100076000B30070E900084E475F001120858EF0269
:1000860008460200037403D2078003E4C207F5089A
:1000960090008412086FE4F509F50BF50CE509608C
:1000A600077F2012006980F5750AFFC201C200C2EF
:1000B60002C203C205C206C208120035FF700D3027
:1000C60007057F0012007AAF0CAE0B22B4255FC283
:1000D600D5C204120035FF24D0B40A00501A75F0B8
:1000E6000A780930D50508B6FF0106C6A426F6200B
:1000F600D5047002D20380D924CFB41A00EF50047D
:10010600C2E5D20402027BD20180C6D20080C0D2F0
:100116000280BCD2D580BAD20580B47F2012006995
:100126002002077401B5090040F1120026FF1200F3
:10013600690200A3D208D2068095120026FB12009F
:1001460026FA120026F94A4B7006794C7A037BFF91
:1001560020022EE509602A7E008E82758300120831
:100166001960060EEE650A70F0C2D5EBC0E0EAC073
:10017600E0E9C0E0EE1202C2D0E0F9D0E0FAD0E049
:10018600FB120800FF60AAEBC0E0EAC0E0E9C0E0AD
:10019600120069D0E02401F9D0E03400FAD0E0FB87
:1001A600E50A0460DCD50AD980877BFF7A0279BE2E
:1001B600D202809C791080027908C206C2088008A3
:1001C600D2D5790A8004790AC2D5E50A047002F507
:1001D6000AE4FAFDFEFF120026FC7B08200113123A
:1001E6000026FD7B1030000A120026FE120026FFB4
:1001F6007B20EC3382D592D55013C3E43000069FA2
:10020600FFE49EFEE42001039DFDE49CFCE4CBF8A4
:10021600C201EC700CCFCECDCCE824F8F870F38098
:1002260017C3EF33FFEE33FEED33FDEC33FCEB3358
:10023600FB994002FB0FD8E9EB300105F8D0E0C48A
:1002460048B201C0E00AEC4D4E4F78207B0070C2E8
:10025600EAB50A0040BCC0E01202C4D0F0D0E020EB
:100266000104C4C0E0C4B201C0F0120052D0F0D5FF
:10027600F0EB0200A312087801405301BA580111AD
:100286004C010D4201BE4F01C64401C64901264339
:0802960001CC5501B04601B096
:10029E004501B047036C5001152D01192E013C2B61
:1002AE00011D23013A2003552A00D54800000134D0
:1002BE003F3F3F00790AA2D5200314300509B9103B
:1002CE00020404B9080104A2D5200602500104203C
:1002DE0002689202B509005034C0E07F2030031945
:1002EE007F30A20272067205500F12031BC202C2A9
:1002FE0006C205C2087F30800F300503E9C0E01248
:10030E000069300503D0E0F9D0E0B509CC3005170F
:10031E007F30B9100C1200697F583004077F788047
:10032E0003B908031200693002057F2D0200697FB0
:10033E00202008F87F2B2006F322920280CF286E11
:10034E00756C6C2900D2011200263001F8C20178BA
:10035E000930D50108F60200D52D50434958120038
:10036E00262403B405004001E49003679312005A5B
:0D037E00743A12005AD2037509040201BA44
:10080000BB010689828A83E0225002E722BBFE02F6
:09081000E32289828A83E4932229
:10081900BB010CE58229F582E5833AF583E0225094
:1008290006E92582F8E622BBFE06E92582F8E222DE
:0D083900E58229F582E5833AF583E49322F8
:10084600BB010689828A83F0225002F722BBFE0191
:02085600F3228B
:10085800F8E0FBA3A3E0F925F0F0E5821582700229
:070868001583E0FA38F022CD
:09086F00EBF0A3EAF0A3E9F0228A
:10087800D083D082F8E4937012740193700DA3A30F
:1008880093F8740193F5828883E473740293686023
:06089800EFA3A3A380DF23
:00000001FF
