:0300000002068A6B
:0C068A00787FE4F6D8FD7581210206504F
:0D067D00E4F5C7F5C5F5C675C380F5C422C8
:1006160043C78043C70375C5038FC4EEF5C375C6CC
:0E0626005A75C6A57F0A7E001205F602067DF3
:1005B40043C78043C70375C5028FC4EEF5C3AF05B7
:1005C4008FC275C65A75C6A57F0A7E001205F6024B
:0205D400067DA2
:1005D60043C78043C70375C5018FC4EEF5C375C60F
:1005E6005A75C6A57F0A7E001205F6AFC202067DC1
:10063400E4F594F593F592F591F596F59575B20276
:0C064400F5B1F5B4F5B375CA10F5C92284
:100590003D3D3D3D3D3D3D3D3D3D20636F6465201E
:1005A0007374617274203D3D3D3D3D3D3D3D3D3D9B
:0405B000200D0A0010
:1006500043BA8012063412000E7BFF7A057990129D
:07066000009112051A80FB56
:10066700759850438E01438E0475D7E875D6FF43BE
:060677008E1043AF0122CA
:030023000206963C
:0B069600309902C299309802C29832DD
:080003002099FDD2998F99228A
:10055D00900050EBF0A3EAF0A3E9F0900050E0FB1F
:10056D00A3E0FAA3E0F91204666017900050A3E42B
:10057D0075F00112047FA9F0FA120466FF12000350
:03058D0080D922F0
:0806A1008F993099FDC29922E6
:10000E00538E7F5389F0E4F58A758CDCC28DD28CC9
:03001E00D2A92242
:03000B0002038B62
:10038B00C0E0C083C082C0D075D000C006C007904B
:10039B000000E06401600302042C20943790000DF0
:1003AB00E004F0700690000CE004F0900024E0FEF6
:1003BB00A3E0FF90000CE06E7003A3E06F704AD2D5
:1003CB00A2C2B3900000F090000CF0A3F0900006D6
:1003DB0004F08035900019E004F07006900018E0EE
:1003EB0004F0900026E0FEA3E0FF900018E0B506B5
:1003FB0018A3E0B50713C2B3900000E4F090000C13
:10040B00F0A3F0900018F0A3F0309315D2B2C2B362
:10041B00900000E4F090000CF0A3F0900018F0A313
:10042B00F0900007E0FF900006E05FFF900008E00F
:10043B005FFFA3E05FFFA3E05FFFA3E070047E011B
:10044B0080027E00EE5F6004C2CC8002D2CCD0076B
:0B045B00D006D0D0D082D083D0E03299
:10051A00209408D2B39000007401F020A508D2B448
:10052A009000017401F0209108D2B5900002740184
:10053A00F0208008D2A09000037401F0208308D232
:10054A00A19000047401F0208208D2A390000574DF
:03055A0001F0228B
:1005F600D3EF9400EE94004016000000750D0B75C5
:0F0606000EBED50EFDD50DFAEF1F70E41E80E17C
:0106150022C2
:10046600BB010689828A83E0225002E722BBFE0294
:09047600E32289828A83E49322C7
:10047F00A3F8E0C5F025F0F0E58215827002158330
:06048F00E0C838F0E8228D
:10002600E508242BF582E43400F583E005082290E8
:10003600002830070390002BE475F0011204D40267
:1000460004662000E97F2ED2008018EF540F24901A
:10005600D43440D4FF30040BEF24BFB41A0050034D
:100066002461FFE50960021509050CE50C7002051F
:100076000B30070E900028E475F0011204D4EF024D
:1000860004C20206A17403D2078003E4C207F5087E
:100096009000281204EBE4F509F50BF50CE5096070
:1000A600077F2012006980F5750AFFC201C200C2EF
:1000B60002C203C205C206C208120035FF700D3027
:1000C60007057F0012007AAF0CAE0B22B4255FC283
:1000D600D5C204120035FF24D0B40A00501A75F0B8
:1000E6000A780930D50508B6FF0106C6A426F6200B
:1000F600D5047002D20380D924CFB41A00EF50047D
:10010600C2E5D20402027BD20180C6D20080C0D2F0
:100116000280BCD2D580BAD20580B47F2012006995
:100126002002077401B5090040F1120026FF1200F3
:10013600690200A3D208D2068095120026FB12009F
:1001460026FA120026F94A4B7006794C7A037BFF91
:1001560020022EE509602A7E008E82758300120435
:100166009560060EEE650A70F0C2D5EBC0E0EAC0F7
:10017600E0E9C0E0EE1202C2D0E0F9D0E0FAD0E049
:10018600FB120466FF60AAEBC0E0EAC0E0E9C0E04B
:10019600120069D0E02401F9D0E03400FAD0E0FB87
:1001A600E50A0460DCD50AD980877BFF7A0279BE2E
:1001B600D202809C791080027908C206C2088008A3
:1001C600D2D5790A8004790AC2D5E50A047002F507
:1001D6000AE4FAFDFEFF120026FC7B08200113123A
:1001E6000026FD7B1030000A120026FE120026FFB4
:1001F6007B20EC3382D592D55013C3E43000069FA2
:10020600FFE49EFEE42001039DFDE49CFCE4CBF8A4
:10021600C201EC700CCFCECDCCE824F8F870F38098
:1002260017C3EF33FFEE33FEED33FDEC33FCEB3358
:10023600FB994002FB0FD8E9EB300105F8D0E0C48A
:1002460048B201C0E00AEC4D4E4F78207B0070C2E8
:10025600EAB50A0040BCC0E01202C4D0F0D0E020EB
:100266000104C4C0E0C4B201C0F0120052D0F0D5FF
:10027600F0EB0200A31204F401405301BA58011135
:100286004C010D4201BE4F01C64401C64901264339
:0802960001CC5501B04601B096
:10029E004501B047036C5001152D01192E013C2B61
:1002AE00011D23013A2003552A00D54800000134D0
:1002BE003F3F3F00790AA2D5200314300509B9103B
:1002CE00020404B9080104A2D5200602500104203C
:1002DE0002689202B509005034C0E07F2030031945
:1002EE007F30A20272067205500F12031BC202C2A9
:1002FE0006C205C2087F30800F300503E9C0E01248
:10030E000069300503D0E0F9D0E0B509CC3005170F
:10031E007F30B9100C1200697F583004077F788047
:10032E0003B908031200693002057F2D0200697FB0
:10033E00202008F87F2B2006F322920280CF286E11
:10034E00756C6C2900D2011200263001F8C20178BA
:10035E000930D50108F60200D52D50434958120038
:10036E00262403B405004001E49003679312005A5B
:0D037E00743A12005AD2037509040201BA44
:10049500BB010CE58229F582E5833AF583E022501C
:1004A50006E92582F8E622BBFE06E92582F8E22266
:0D04B500E58229F582E5833AF583E4932280
:1004C200BB010689828A83F0225002F722BBFE0119
:0204D200F32213
:1004D400F8E0FBA3A3E0F925F0F0E58215827002B1
:0704E4001583E0FA38F02255
:0904EB00EBF0A3EAF0A3E9F02212
:1004F400D083D082F8E4937012740193700DA3A397
:1005040093F8740193F5828883E4737402936860AA
:06051400EFA3A3A380DFAA
:00000001FF
