:03000000020C4BA4
:0C0C4B00787FE4F6D8FD7581210209795C
:0D000E00E4F5C7F5C5F5C675C380F5C4223D
:100B8B0043C78043C70375C5038FC4EEF5C375C652
:0E0B9B005A75C6A57F0A7E00120B6B02000E73
:100B290043C78043C70375C5028FC4EEF5C3AF053C
:100B39008FC275C65A75C6A57F0A7E00120B6B0255
:020B4900000E9C
:100B4B0043C78043C70375C5018FC4EEF5C375C694
:100B5B005A75C6A57F0A7E00120B6BAFC202000E40
:100BA900E4F594F593F592F59175961FF59575B25F
:0D0BB900BCF5B1F5B4F5B375CA10F5C9224D
:100B05003D3D3D3D3D3D3D3D3D3D20636F646520A3
:100B15007374617274203D3D3D3D3D3D3D3D3D3D20
:040B2500200D0A0095
:1009790043BA80120BA9120C14120C27120BFC1289
:100989000BE11207D8120C57120C3AD2AF120BC650
:100999007BFF7A0B79051200911208FC12083C12B0
:0409A900089F80F52E
:100BFC0043A240759850438E01438E0475D7E87517
:080C0C00D6FF438E10D2AC228A
:100C1400538E7F5389F0E4F58A758CDCC28DD28CB7
:030C2400D2A92230
:100C2700438E4053890F758BCD758DD4C28FD28E6D
:030C3700D2AB221B
:1007D8009000407401F0E4A3F0A3F0A3F0A3F0A309
:1007E800F0A3F0A304F0E4A3F0A3F0A3F0A3F0A314
:1007F800F0A3F0A304F0E4A3F0A3F0A3F0A3F0A304
:10080800F0A3F0A304F0E4A3F0A3F0A3F0A3F0A3F3
:10081800F0A3F0A304F0E4A3F0A3F0A3F0A3F0A3E3
:10082800F0A3F0A304F0E4A3F0A3F0A3F0A3F0A3D3
:04083800F0A3F02217
:0C0C5700E4900038F0A3F0A3F0A3F0221A
:100C3A00C2B3C2B4C2B5C2A0C2A1C2A3C2A2C2B246
:010C4A002287
:1008FC001209AD1209E0120A13120A46120A7912F1
:10090C000AAC900049E0FF900042E04FFF9000508D
:10091C00E04FFF900057E04FFF90005EE04FFF90DC
:10092C000065E0B401047E0180027E00EE4F60069B
:07093C009000387401F02265
:1009AD00309412D2B2C2B39000387401F0E49000CA
:1009BD0040F0A3F022900040E0B40116209313D232
:1009CD00B3E4F0900043F0A3F0A3F0A3F090004146
:0309DD0004F02201
:1009E00030A512D2B2C2B49000387401F0E4900085
:1009F00047F0A3F022900047E0B4011620A613D2DE
:100A0000B4E4F090004AF0A3F0A3F0A3F090004803
:030A100004F022CD
:100A1300309112D2B2C2B59000387401F0E4900064
:100A23004EF0A3F02290004EE0B40116209213D2B0
:100A3300B5E4F0900051F0A3F0A3F0A3F090004FC1
:030A430004F0229A
:100A4600308012D2B2C2A09000387401F0E4900057
:100A560055F0A3F022900055E0B4011620A713D25A
:100A6600A0E4F0900058F0A3F0A3F0A3F090005695
:030A760004F02267
:100A7900308312D2B2C2A19000387401F0E4900020
:100A89005CF0A3F02290005CE0B40116209013D230
:100A9900A1E4F090005FF0A3F0A3F0A3F090005D53
:030AA90004F02234
:100AAC00308212D2B2C2A39000387401F0E49000EC
:100ABC0063F0A3F022900063E0B40116208113D2FE
:100ACC00A3E4F0900066F0A3F0A3F0A3F090006410
:030ADC0004F02201
:10083C0020A45F7F647E00120B6B20A4F3C2B3C2B2
:10084C00B4C2B5C2A0C2A1C2A3D2CCE4900038F00D
:10085C00C2B2C2A290004004F0E4900042F09000BA
:10086C004704F0E4900049F090004E04F0E490004E
:10087C0050F090005504F0E4900057F090005C04A8
:10088C00F0E490005EF090006304F0E4900065F0FA
:03089C00809E2219
:03000B0002038B62
:10038B00C0E0C083C082C0D075D000C006C007904B
:10039B000041E064017066209334900044E004F067
:1003AB007006900043E004F090003CE0FEA3E0FFF9
:1003BB00C3900044E09F900043E09E4040D2A2C215
:1003CB00B39000427401F0900041E4F0802F900054
:1003DB0046E004F07006900045E004F090003EE02B
:1003EB00FEA3E0FFC3900046E09F900045E09E40D7
:1003FB000CC2B3900041E4F090004004F090004830
:10040B00E06401706620A63490004BE004F07006A7
:10041B0090004AE004F090003CE0FEA3E0FFC390A4
:10042B00004BE09F90004AE09E4040D2A2C2B490A5
:10043B0000497401F0900048E4F0802F90004DE0EB
:10044B0004F0700690004CE004F090003EE0FEA338
:10045B00E0FFC390004DE09F90004CE09E400CC22B
:10046B00B4900048E4F090004704F090004FE06433
:10047B00017066209234900052E004F070069000F8
:10048B0051E004F090003CE0FEA3E0FFC39000526B
:10049B00E09F900051E09E4040D2A2C2B590005028
:1004AB007401F090004FE4F0802F900054E004F0C2
:1004BB007006900053E004F090003EE0FEA3E0FFD6
:1004CB00C3900054E09F900053E09E400CC2B59047
:1004DB00004FE4F090004E04F0900056E064017081
:1004EB006620A734900059E004F07006900058E0A5
:1004FB0004F090003CE0FEA3E0FFC3900059E09FA6
:10050B00900058E09E4040D2A2C2A09000577401C8
:10051B00F0900056E4F0802F90005BE004F0700642
:10052B0090005AE004F090003EE0FEA3E0FFC39081
:10053B00005BE09F90005AE09E400CC2A0900056DA
:10054B00E4F090005504F090005DE06401706620CB
:10055B009034900060E004F0700690005FE004F0CF
:10056B0090003CE0FEA3E0FFC3900060E09F900092
:10057B005FE09E4040D2A2C2A190005E7401F09059
:10058B00005DE4F0802F900062E004F070069000B4
:10059B0061E004F090003EE0FEA3E0FFC390006238
:1005AB00E09F900061E09E400CC2A190005DE4F0E2
:1005BB0090005C04F0900064E0640170662081346C
:1005CB00900067E004F07006900066E004F0900085
:1005DB003CE0FEA3E0FFC3900067E09F900066E065
:1005EB009E4040D2A2C2A39000657401F0900064BB
:1005FB00E4F0802F900069E004F07006900068E052
:10060B0004F090003EE0FEA3E0FFC3900069E09F82
:10061B00900068E09E400CC2A3900064E4F0900050
:10062B006304F0D007D006D0D0D082D083D0E03294
:03001B000206D901
:1006D900C0E0C083C082C0D075D000C00790003888
:1006E900E0B4012F90003AE004F07006900039E080
:1006F90004F0900039E0B40121A3E0B4F41C9000A7
:1007090039E4F0A3F0A3E0FFC374019FF024FF9242
:10071900CC8007900039E4F0A3F0900034E0700237
:10072900A3E06024900035E024FFF0900034E03429
:10073900FFF0E07002A3E0700F900036E0D3940060
:1007490040069000017401F0D007D0D0D082D08348
:03075900D0E032BB
:100BC6007F107E00120B4BEFB4FF0D900092740560
:0B0BD600F0A3740AF0120ADF020943CA
:100ADF00E4FFFE120B8B900092E0FDE4FFFE120B81
:100AEF0029900093E0FD7F017E00120B297D587F36
:060AFF00107E00020B292D
:10094300E4FFFE120B4B900092EFF0E075F064A40D
:10095300FF90003CE5F0F0A3EFF07F017E00120B67
:100963004B900093EFF0E075F064A4FF90003EE538
:06097300F0F0A3EFF022FA
:100BE100E4900000F0A3F090001AF0900032F0F0D1
:0B0BF100A3F0A3F0A3F0A3F0A3F022F8
:0300230002075C75
:10075C00C0E0C083C082C0D075D000C00730992CD7
:10076C00C299900000E4F0900032E0601AA3E0FF20
:10077C0004F074022FF582E43400F583E0F59990CF
:10078C000032E014F08005900033E4F0309832C26F
:10079C0098900001E07021900036E0D3941840024C
:1007AC00E4F0900036E0241AF582E43400F583E599
:1007BC0099F0900036E004F0900034E4F0A3743229
:0C07CC00F0D007D0D0D082D083D0E03233
:080003008F993099FDC299228A
:100B6B00D3EF9400EE9400401600000075080B754F
:0F0B7B0009BED509FDD508FAEF1F70E41E80E111
:010B8A002248
:10089F00900001E064017054F0900036F090001A5F
:1008AF00E064BB7047A3E0900092F090001CE090D2
:1008BF000093F0120ADF900092E075F064A4FF90AD
:1008CF00003CE5F0F0A3EFF0900093E075F064A426
:1008DF00FF90003EE5F0F0A3EFF090000274AAF055
:0D08EF00A374CCF09000327402F0D2992274
:10002600E508246DF582E43400F583E005082290A6
:10003600006A30070390006DE475F0011206930222
:10004600063B2000E97F2ED2008018EF540F249043
:10005600D43440D4FF30040BEF24BFB41A0050034D
:100066002461FFE50960021509050CE50C7002051F
:100076000B30070E90006AE475F001120693EF024A
:1000860006810200037403D2078003E4C207F50861
:1000960090006A1206AAE4F509F50BF50CE509606D
:1000A600077F2012006980F5750AFFC201C200C2EF
:1000B60002C203C205C206C208120035FF700D3027
:1000C60007057F0012007AAF0CAE0B22B4255FC283
:1000D600D5C204120035FF24D0B40A00501A75F0B8
:1000E6000A780930D50508B6FF0106C6A426F6200B
:1000F600D5047002D20380D924CFB41A00EF50047D
:10010600C2E5D20402027BD20180C6D20080C0D2F0
:100116000280BCD2D580BAD20580B47F2012006995
:100126002002077401B5090040F1120026FF1200F3
:10013600690200A3D208D2068095120026FB12009F
:1001460026FA120026F94A4B7006794C7A037BFF91
:1001560020022EE509602A7E008E82758300120633
:100166005460060EEE650A70F0C2D5EBC0E0EAC038
:10017600E0E9C0E0EE1202C2D0E0F9D0E0FAD0E049
:10018600FB12063BFF60AAEBC0E0EAC0E0E9C0E074
:10019600120069D0E02401F9D0E03400FAD0E0FB87
:1001A600E50A0460DCD50AD980877BFF7A0279BE2E
:1001B600D202809C791080027908C206C2088008A3
:1001C600D2D5790A8004790AC2D5E50A047002F507
:1001D6000AE4FAFDFEFF120026FC7B08200113123A
:1001E6000026FD7B1030000A120026FE120026FFB4
:1001F6007B20EC3382D592D55013C3E43000069FA2
:10020600FFE49EFEE42001039DFDE49CFCE4CBF8A4
:10021600C201EC700CCFCECDCCE824F8F870F38098
:1002260017C3EF33FFEE33FEED33FDEC33FCEB3358
:10023600FB994002FB0FD8E9EB300105F8D0E0C48A
:1002460048B201C0E00AEC4D4E4F78207B0070C2E8
:10025600EAB50A0040BCC0E01202C4D0F0D0E020EB
:100266000104C4C0E0C4B201C0F0120052D0F0D5FF
:10027600F0EB0200A31206B301405301BA58011174
:100286004C010D4201BE4F01C64401C64901264339
:0802960001CC5501B04601B096
:10029E004501B047036C5001152D01192E013C2B61
:1002AE00011D23013A2003552A00D54800000134D0
:1002BE003F3F3F00790AA2D5200314300509B9103B
:1002CE00020404B9080104A2D5200602500104203C
:1002DE0002689202B509005034C0E07F2030031945
:1002EE007F30A20272067205500F12031BC202C2A9
:1002FE0006C205C2087F30800F300503E9C0E01248
:10030E000069300503D0E0F9D0E0B509CC3005170F
:10031E007F30B9100C1200697F583004077F788047
:10032E0003B908031200693002057F2D0200697FB0
:10033E00202008F87F2B2006F322920280CF286E11
:10034E00756C6C2900D2011200263001F8C20178BA
:10035E000930D50108F60200D52D50434958120038
:10036E00262403B405004001E49003679312005A5B
:0D037E00743A12005AD2037509040201BA44
:10063B00BB010689828A83E0225002E722BBFE02BD
:09064B00E32289828A83E49322F0
:10065400BB010CE58229F582E5833AF583E022505B
:1006640006E92582F8E622BBFE06E92582F8E222A5
:0D067400E58229F582E5833AF583E49322BF
:10068100BB010689828A83F0225002F722BBFE0158
:02069100F32252
:10069300F8E0FBA3A3E0F925F0F0E58215827002F0
:0706A3001583E0FA38F02294
:0906AA00EBF0A3EAF0A3E9F02251
:1006B300D083D082F8E4937012740193700DA3A3D6
:1006C30093F8740193F5828883E4737402936860EA
:0606D300EFA3A3A380DFEA
:00000001FF
